:100000000C9434000C9446000C9446000C9446006A
:100010000C9446000C9446000C9446000C94A801E5
:100020000C9446000C9446000C9446000C94460038
:100030000C9446000C94E7000C9446000C94460087
:100040000C94D0000C9446000C940A020C944902C3
:100050000C9446000C9446000C9446000C94460008
:100060000C9446000C94460011241FBECFEFD8E03C
:10007000DEBFCDBF21E0A0E0B1E001C01D92A039FC
:10008000B207E1F70E9448000C94F1020C940000C2
:10009000CF93DF93CDB7DEB72B970FB6F894DEBFC3
:1000A0000FBECDBF82E084B980E48BB90E94870186
:1000B0000E94EF010E94BA0078940E943A010E94C7
:1000C000FE000E94EA015C011A861986412C512C1F
:1000D0003201C12CD12C76011E0129E0220E311CE7
:1000E0009FB6F8940E94E5018C018A199B09803D16
:1000F0009740D0F10E943A016B017C010E94FE0002
:100100002B013C01580130C00E94AB028B87498211
:100110005A826B827C82CD82DE82EF82F886CE01AB
:1001200001964C01F40181914F010E9486028214D4
:100130009304C1F7FB85FF2379F08F2F90E09C019A
:10014000220F331F220F331F820F931F9C01200F9A
:10015000311F3A872987299A89859A85801B910BB7
:100160000AF0BECF2998BCCF9FBE0E940702882309
:1001700099F3CACF109209011092080110920B0155
:1001800010920A0185B5876085BD81E080936E007D
:10019000E1E8F0E090819760908380936F0008958C
:1001A0001F920F920FB60F9211248F939F938091FD
:1001B0000A0190910B01019690930B0180930A0123
:1001C0009F918F910F900FBE0F901F9018951F92C7
:1001D0000F920FB60F9211248F939F938091080175
:1001E00090910901019690930901809308019F91D4
:1001F0008F910F900FBE0F901F9018950F931F9324
:100200003FB7F89426B5223068F4A89B0BC08091C4
:100210000A0190910B01019690930B0180930A01C2
:1002200081E085BB80910A0190910B01A0E0B0E0D4
:10023000BA2FA92F982F8827822B3FBF4091040106
:100240005091050160910601709107018C019D019B
:10025000041B150B260B370B8093040190930501AB
:10026000A0930601B0930701C901B80199271F9116
:100270000F910895CF92DF92EF92FF920F931F9309
:100280002FB7F89440918400509185004230510579
:1002900068F4B09B0BC08091080190910901019610
:1002A000909309018093080181E086BB8091080149
:1002B00090910901A0E0B0E0DC019927882760E077
:1002C00070E06C017D01C42AD52AE62AF72A2FBFE7
:1002D0004091000150910101609102017091030170
:1002E00097018601041B150B260B370BC901B801BA
:1002F000C0920001D0920101E0920201F09203014C
:100300001F910F91FF90EF90DF90CF900895539A37
:10031000529A569A579A209A87B1876087B988B1BE
:10032000887F88B95A9A5E98289A82E18093B000B3
:1003300086E08093B10080E28093B3001092B40015
:1003400082E08093700010921101109210010895C4
:100350001F920F920FB60F9211242F938F939F939A
:100360008091100190911101019690931101809359
:10037000100180910C0190910D01805E9B4F909334
:100380000D0180930C0180910C0190910D01893E2B
:10039000934098F080910C0190910D01885E9340FC
:1003A00090930D0180930C0180910E0190910F01AB
:1003B000019690930F0180930E019F918F912F9141
:1003C0000F900FBE0F901F90189580910E01909185
:1003D0000F010895809110019091110108951092DC
:1003E0002701109226011092280110922A011092E2
:1003F000290189E190E09093C5008093C40088EBC7
:100400008093C10086E08093C200519A0895809144
:10041000280108951F920F920FB60F9211242F9367
:100420003F935F936F937F938F939F93AF93BF930C
:10043000EF93FF932091C600809128018431A0F4AE
:10044000309126018091280190E0830F911D64E195
:1004500070E00E94C902FC01EE5EFE4F2083809195
:1004600028018F5F809328012B3319F481E080935A
:100470002701FF91EF91BF91AF919F918F917F9154
:100480006F915F913F912F910F900FBE0F901F9032
:1004900018951F920F920FB60F9211245F936F93CE
:1004A0007F938F939F93AF93BF93EF93FF9380912D
:1004B00029018823C1F0E0912A01F0E0E05CFE4FC1
:1004C00080818093C60080912A0190E0019660E5CA
:1004D00070E00E94C90280932A0180912901815015
:1004E0008093290105C0E1ECF0E080818F7D80835D
:1004F000FF91EF91BF91AF919F918F917F916F91FC
:100500005F910F900FBE0F901F901895382F4FB727
:10051000F894809129018035D8F420912A018091A6
:10052000290190E0820F911D60E570E00E94C902F0
:10053000FC01E05CFE4F3083809129018F5F809346
:100540002901E1ECF0E080818062808381E001C0DC
:1005500080E04FBF0895809128018823B9F0E09191
:100560002601F0E0EE5EFE4F40818091280181502F
:10057000809328012091260130E0C901019664E1B1
:1005800070E00E94C9028093260101C040E0842FE0
:10059000089597FB072E16F4009407D077FD09D035
:1005A0000E94DD0207FC05D03EF4909581959F4F97
:1005B0000895709561957F4F0895AA1BBB1B51E16B
:1005C00007C0AA1FBB1FA617B70710F0A61BB70BC3
:1005D000881F991F5A95A9F780959095BC01CD0168
:0605E0000895F894FFCF1E
:00000001FF
