:100000000C9434000C9446000C9446000C9446006A
:100010000C9446000C9446000C9446000C94BD01D0
:100020000C9446000C9446000C9446000C94460038
:100030000C9446000C94E0000C9446000C9446008E
:100040000C94C9000C9446000C9418020C945702AE
:100050000C9446000C9446000C9446000C94460008
:100060000C9446000C94460011241FBECFEFD8E03C
:10007000DEBFCDBF21E0A0E0B1E001C01D92A039FC
:10008000B207E1F70E9448000C9406030C940000AC
:10009000CF93DF93CDB7DEB72B970FB6F894DEBFC3
:1000A0000FBECDBF82E084B980E48BB90E94860187
:1000B0000E94FD010E94B30078940E943B010E94BF
:1000C000F7000E94F8014C01A12CB12C212C312CFD
:1000D0002101C12CD12C76019E01275F3F4F3A8729
:1000E00029877FB6F8940E94F8018C018819990934
:1000F000803D974048F00E943B016B017C010E94CB
:10010000F7001B012C0148017FBE0E9415028823C5
:1001100019F10E94B902982F29823A824B825C829F
:10012000CD82DE82EF82F886FE0131963F01F30137
:1001300081913F019B870E9494029B8529853A8586
:1001400062167306A1F7992339F0580135E0939FA1
:10015000A00CB11C1124299AC501801B910B97FF9B
:10016000C0CF2998BECF10920901109208011092B9
:100170000B0110920A0185B5876085BD91E09093CF
:100180006E00E1E8F0E080818760808390936F00EB
:1001900008951F920F920FB60F9211248F939F9381
:1001A00080910A0190910B01019690930B0180932D
:1001B0000A019F918F910F900FBE0F901F9018957D
:1001C0001F920F920FB60F9211248F939F938091DD
:1001D000080190910901019690930901809308010B
:1001E0009F918F910F900FBE0F901F901895CF92F7
:1001F000DF92EF92FF920F931F933FB7F89426B5CB
:10020000223068F4A89B0BC080910A0190910B01E9
:10021000019690930B0180930A0181E085BB809148
:100220000A0190910B01A0E0B0E0CC24D82EE92E79
:10023000FA2EC22A3FBF40910401509105016091FE
:1002400006017091070197018601041B150B260B0F
:10025000370BC901B801C0920401D0920501E092A8
:100260000601F092070199271F910F91FF90EF90DF
:10027000DF90CF900895CF92DF92EF92FF920F938D
:100280001F932FB7F894409184005091850042301D
:10029000510568F4B09B0BC0809108019091090151
:1002A0000196909309018093080181E086BB8091BB
:1002B000080190910901A0E0B0E07C01DD24CC248C
:1002C00060E070E0C42AD52AE62AF72A2FBF4091C1
:1002D00000015091010160910201709103019701A9
:1002E0008601041B150B260B370BC901B801C09200
:1002F0000001D0920101E0920201F09203011F91EE
:100300000F91FF90EF90DF90CF900895539A529AFB
:10031000569A579A209A87B1876087B980E090E013
:100320000E94FE028F3F11F0877001C080E098B1FB
:10033000987F98B998B1982B98B95A9A5E98289A4C
:1003400082E18093B00086E08093B10081E090E08C
:100350000E94FE029FED980F903208F080E2809399
:10036000B30080E294E09093110180931001109209
:10037000B40082E08093700008951F920F920FB630
:100380000F9211242F933F938F939F9320910C01F1
:1003900030910D018091100190911101820F931FF6
:1003A00090930D0180930C0180910C0190910D01AF
:1003B000893E9340A0F080910C0190910D01885EE0
:1003C000934090930D0180930C0180910E019091C8
:1003D0000F01019690930F0180930E01E5CF9F913D
:1003E0008F913F912F910F900FBE0F901F901895F6
:1003F00080910E0190910F010895109227011092A3
:1004000026011092280110922A011092290189E1F7
:1004100090E09093C5008093C40088EB8093C10066
:1004200086E08093C200519A089580912801089532
:100430001F920F920FB60F9211242F933F935F9349
:100440006F937F938F939F93AF93BF93EF93FF939C
:100450002091C600809128018431A0F430912601BA
:100460008091280190E0830F911D64E170E00E946B
:10047000D6028E5E9E4FFC012083809128018F5F03
:10048000809328012B3319F481E080932701FF9199
:10049000EF91BF91AF919F918F917F916F915F91FC
:1004A0003F912F910F900FBE0F901F9018951F92A4
:1004B0000F920FB60F9211245F936F937F938F93D8
:1004C0009F93AF93BF93EF93FF938091290188236C
:1004D000C1F0E0912A01F0E0E05CFE4F8081809362
:1004E000C60080912A0190E0019660E570E00E94CC
:1004F000D60280932A01809129018150809329019D
:1005000005C08091C1008F7D8093C100FF91EF9164
:10051000BF91AF919F918F917F916F915F910F905C
:100520000FBE0F901F901895282F3FB7F894809119
:100530002901803518F080E03FBF089540912A01DD
:100540008091290190E0840F911D60E570E00E9488
:10055000D602805C9E4FFC012083809129018F5F31
:10056000809329018091C10080628093C10081E065
:10057000E3CF809128018823B1F0E0912601F0E0DB
:10058000EE5EFE4F208190912801915090932801BA
:100590008091260190E0019664E170E00E94D6020D
:1005A0008093260101C020E0822F089597FB072E3B
:1005B00016F4009407D077FD09D00E94EA0207FCE8
:1005C00005D03EF4909581959F4F08957095619563
:1005D0007F4F0895AA1BBB1B51E107C0AA1FBB1F79
:1005E000A617B70710F0A61BB70B881F991F5A95BF
:1005F000A9F780959095BC01CD010895F999FECF9A
:1006000092BD81BDF89A992780B50895F894FFCFDF
:00000001FF
